{
  "contractName": "IpfsStorage",
  "abi": [
    {
      "constant": false,
      "inputs": [],
      "name": "unpause",
      "outputs": [],
      "payable": false,
      "stateMutability": "nonpayable",
      "type": "function"
    },
    {
      "constant": true,
      "inputs": [],
      "name": "paused",
      "outputs": [
        {
          "name": "",
          "type": "bool"
        }
      ],
      "payable": false,
      "stateMutability": "view",
      "type": "function"
    },
    {
      "constant": false,
      "inputs": [],
      "name": "pause",
      "outputs": [],
      "payable": false,
      "stateMutability": "nonpayable",
      "type": "function"
    },
    {
      "constant": true,
      "inputs": [],
      "name": "owner",
      "outputs": [
        {
          "name": "",
          "type": "address"
        }
      ],
      "payable": false,
      "stateMutability": "view",
      "type": "function"
    },
    {
      "constant": true,
      "inputs": [
        {
          "name": "",
          "type": "uint256"
        }
      ],
      "name": "fileStructs",
      "outputs": [
        {
          "name": "fileName",
          "type": "string"
        },
        {
          "name": "ipfsHash",
          "type": "string"
        },
        {
          "name": "tags",
          "type": "string"
        },
        {
          "name": "timestamp",
          "type": "uint256"
        }
      ],
      "payable": false,
      "stateMutability": "view",
      "type": "function"
    },
    {
      "constant": true,
      "inputs": [
        {
          "name": "",
          "type": "uint256"
        }
      ],
      "name": "fileOwner",
      "outputs": [
        {
          "name": "",
          "type": "address"
        }
      ],
      "payable": false,
      "stateMutability": "view",
      "type": "function"
    },
    {
      "constant": false,
      "inputs": [
        {
          "name": "newOwner",
          "type": "address"
        }
      ],
      "name": "transferOwnership",
      "outputs": [],
      "payable": false,
      "stateMutability": "nonpayable",
      "type": "function"
    },
    {
      "anonymous": false,
      "inputs": [
        {
          "indexed": true,
          "name": "accountAddress",
          "type": "address"
        },
        {
          "indexed": false,
          "name": "fileName",
          "type": "string"
        },
        {
          "indexed": false,
          "name": "ipfsHash",
          "type": "string"
        },
        {
          "indexed": false,
          "name": "tags",
          "type": "string"
        },
        {
          "indexed": false,
          "name": "timestamp",
          "type": "uint256"
        }
      ],
      "name": "LogNewFile",
      "type": "event"
    },
    {
      "anonymous": false,
      "inputs": [],
      "name": "Pause",
      "type": "event"
    },
    {
      "anonymous": false,
      "inputs": [],
      "name": "Unpause",
      "type": "event"
    },
    {
      "anonymous": false,
      "inputs": [
        {
          "indexed": true,
          "name": "previousOwner",
          "type": "address"
        },
        {
          "indexed": true,
          "name": "newOwner",
          "type": "address"
        }
      ],
      "name": "OwnershipTransferred",
      "type": "event"
    },
    {
      "constant": false,
      "inputs": [
        {
          "name": "_fileName",
          "type": "string"
        },
        {
          "name": "_ipfsHash",
          "type": "string"
        },
        {
          "name": "_tags",
          "type": "string"
        }
      ],
      "name": "insertFile",
      "outputs": [],
      "payable": false,
      "stateMutability": "nonpayable",
      "type": "function"
    },
    {
      "constant": true,
      "inputs": [],
      "name": "getFileIndexes",
      "outputs": [
        {
          "name": "",
          "type": "uint256[]"
        }
      ],
      "payable": false,
      "stateMutability": "view",
      "type": "function"
    },
    {
      "constant": true,
      "inputs": [
        {
          "name": "_index",
          "type": "uint256"
        }
      ],
      "name": "getFile",
      "outputs": [
        {
          "name": "",
          "type": "string"
        },
        {
          "name": "",
          "type": "string"
        },
        {
          "name": "",
          "type": "string"
        },
        {
          "name": "",
          "type": "uint256"
        }
      ],
      "payable": false,
      "stateMutability": "view",
      "type": "function"
    }
  ],
  "bytecode": "0x608060405260008060146101000a81548160ff021916908315150217905550336000806101000a81548173ffffffffffffffffffffffffffffffffffffffff021916908373ffffffffffffffffffffffffffffffffffffffff16021790555061135d8061006d6000396000f3006080604052600436106100a4576000357c0100000000000000000000000000000000000000000000000000000000900463ffffffff16806318dded32146100a95780632bfda313146101155780633f4ba83a1461029a5780635c975abb146102b15780637d1204ce146102e05780638456cb59146103d55780638da5cb5b146103ec578063d5e143fb14610443578063edb02e92146105c8578063f2fde38b14610635575b600080fd5b3480156100b557600080fd5b506100be610678565b6040518080602001828103825283818151815260200191508051906020019060200280838360005b838110156101015780820151818401526020810190506100e6565b505050509050019250505060405180910390f35b34801561012157600080fd5b506101406004803603810190808035906020019092919050505061070d565b60405180806020018060200180602001858152602001848103845288818151815260200191508051906020019080838360005b8381101561018e578082015181840152602081019050610173565b50505050905090810190601f1680156101bb5780820380516001836020036101000a031916815260200191505b50848103835287818151815260200191508051906020019080838360005b838110156101f45780820151818401526020810190506101d9565b50505050905090810190601f1680156102215780820380516001836020036101000a031916815260200191505b50848103825286818151815260200191508051906020019080838360005b8381101561025a57808201518184015260208101905061023f565b50505050905090810190601f1680156102875780820380516001836020036101000a031916815260200191505b5097505050505050505060405180910390f35b3480156102a657600080fd5b506102af6109e5565b005b3480156102bd57600080fd5b506102c6610aa3565b604051808215151515815260200191505060405180910390f35b3480156102ec57600080fd5b506103d3600480360381019080803590602001908201803590602001908080601f0160208091040260200160405190810160405280939291908181526020018383808284378201915050505050509192919290803590602001908201803590602001908080601f0160208091040260200160405190810160405280939291908181526020018383808284378201915050505050509192919290803590602001908201803590602001908080601f0160208091040260200160405190810160405280939291908181526020018383808284378201915050505050509192919290505050610ab6565b005b3480156103e157600080fd5b506103ea610e18565b005b3480156103f857600080fd5b50610401610ed8565b604051808273ffffffffffffffffffffffffffffffffffffffff1673ffffffffffffffffffffffffffffffffffffffff16815260200191505060405180910390f35b34801561044f57600080fd5b5061046e60048036038101908080359060200190929190505050610efd565b60405180806020018060200180602001858152602001848103845288818151815260200191508051906020019080838360005b838110156104bc5780820151818401526020810190506104a1565b50505050905090810190601f1680156104e95780820380516001836020036101000a031916815260200191505b50848103835287818151815260200191508051906020019080838360005b83811015610522578082015181840152602081019050610507565b50505050905090810190601f16801561054f5780820380516001836020036101000a031916815260200191505b50848103825286818151815260200191508051906020019080838360005b8381101561058857808201518184015260208101905061056d565b50505050905090810190601f1680156105b55780820380516001836020036101000a031916815260200191505b5097505050505050505060405180910390f35b3480156105d457600080fd5b506105f360048036038101908080359060200190929190505050611104565b604051808273ffffffffffffffffffffffffffffffffffffffff1673ffffffffffffffffffffffffffffffffffffffff16815260200191505060405180910390f35b34801561064157600080fd5b50610676600480360381019080803573ffffffffffffffffffffffffffffffffffffffff169060200190929190505050611137565b005b6060600260003373ffffffffffffffffffffffffffffffffffffffff1673ffffffffffffffffffffffffffffffffffffffff16815260200190815260200160002080548060200260200160405190810160405280929190818152602001828054801561070357602002820191906000526020600020905b8154815260200190600101908083116106ef575b5050505050905090565b606080606060003373ffffffffffffffffffffffffffffffffffffffff166003600087815260200190815260200160002060009054906101000a900473ffffffffffffffffffffffffffffffffffffffff1673ffffffffffffffffffffffffffffffffffffffff1614151561078157600080fd5b60018581548110151561079057fe5b90600052602060002090600402016000016001868154811015156107b057fe5b90600052602060002090600402016001016001878154811015156107d057fe5b90600052602060002090600402016002016001888154811015156107f057fe5b906000526020600020906004020160030154838054600181600116156101000203166002900480601f0160208091040260200160405190810160405280929190818152602001828054600181600116156101000203166002900480156108975780601f1061086c57610100808354040283529160200191610897565b820191906000526020600020905b81548152906001019060200180831161087a57829003601f168201915b50505050509350828054600181600116156101000203166002900480601f0160208091040260200160405190810160405280929190818152602001828054600181600116156101000203166002900480156109335780601f1061090857610100808354040283529160200191610933565b820191906000526020600020905b81548152906001019060200180831161091657829003601f168201915b50505050509250818054600181600116156101000203166002900480601f0160208091040260200160405190810160405280929190818152602001828054600181600116156101000203166002900480156109cf5780601f106109a4576101008083540402835291602001916109cf565b820191906000526020600020905b8154815290600101906020018083116109b257829003601f168201915b5050505050915093509350935093509193509193565b6000809054906101000a900473ffffffffffffffffffffffffffffffffffffffff1673ffffffffffffffffffffffffffffffffffffffff163373ffffffffffffffffffffffffffffffffffffffff16141515610a4057600080fd5b600060149054906101000a900460ff161515610a5b57600080fd5b60008060146101000a81548160ff0219169083151502179055507f7805862f689e2f13df9f062ff482ad3ad112aca9e0847911ed832e158c525b3360405160405180910390a1565b600060149054906101000a900460ff1681565b60008060149054906101000a900460ff16151515610ad357600080fd5b8383836032815111151515610ae757600080fd5b6032835111151515610af857600080fd5b602e825111151515610b0957600080fd5b6001806080604051908101604052808a815260200189815260200188815260200142815250908060018154018082558091505090600182039060005260206000209060040201600090919290919091506000820151816000019080519060200190610b7592919061128c565b506020820151816001019080519060200190610b9292919061128c565b506040820151816002019080519060200190610baf92919061128c565b50606082015181600301555050039350600260003373ffffffffffffffffffffffffffffffffffffffff1673ffffffffffffffffffffffffffffffffffffffff168152602001908152602001600020849080600181540180825580915050906001820390600052602060002001600090919290919091505550336003600086815260200190815260200160002060006101000a81548173ffffffffffffffffffffffffffffffffffffffff021916908373ffffffffffffffffffffffffffffffffffffffff1602179055503373ffffffffffffffffffffffffffffffffffffffff167f203628b85349a7307961fcd46c3f262e33dcdf0be979bd3d1b6c22978408b1a98888884260405180806020018060200180602001858152602001848103845288818151815260200191508051906020019080838360005b83811015610d04578082015181840152602081019050610ce9565b50505050905090810190601f168015610d315780820380516001836020036101000a031916815260200191505b50848103835287818151815260200191508051906020019080838360005b83811015610d6a578082015181840152602081019050610d4f565b50505050905090810190601f168015610d975780820380516001836020036101000a031916815260200191505b50848103825286818151815260200191508051906020019080838360005b83811015610dd0578082015181840152602081019050610db5565b50505050905090810190601f168015610dfd5780820380516001836020036101000a031916815260200191505b5097505050505050505060405180910390a250505050505050565b6000809054906101000a900473ffffffffffffffffffffffffffffffffffffffff1673ffffffffffffffffffffffffffffffffffffffff163373ffffffffffffffffffffffffffffffffffffffff16141515610e7357600080fd5b600060149054906101000a900460ff16151515610e8f57600080fd5b6001600060146101000a81548160ff0219169083151502179055507f6985a02210a168e66602d3235cb6db0e70f92b3ba4d376a33c0f3d9434bff62560405160405180910390a1565b6000809054906101000a900473ffffffffffffffffffffffffffffffffffffffff1681565b600181815481101515610f0c57fe5b9060005260206000209060040201600091509050806000018054600181600116156101000203166002900480601f016020809104026020016040519081016040528092919081815260200182805460018160011615610100020316600290048015610fb85780601f10610f8d57610100808354040283529160200191610fb8565b820191906000526020600020905b815481529060010190602001808311610f9b57829003601f168201915b505050505090806001018054600181600116156101000203166002900480601f0160208091040260200160405190810160405280929190818152602001828054600181600116156101000203166002900480156110565780601f1061102b57610100808354040283529160200191611056565b820191906000526020600020905b81548152906001019060200180831161103957829003601f168201915b505050505090806002018054600181600116156101000203166002900480601f0160208091040260200160405190810160405280929190818152602001828054600181600116156101000203166002900480156110f45780601f106110c9576101008083540402835291602001916110f4565b820191906000526020600020905b8154815290600101906020018083116110d757829003601f168201915b5050505050908060030154905084565b60036020528060005260406000206000915054906101000a900473ffffffffffffffffffffffffffffffffffffffff1681565b6000809054906101000a900473ffffffffffffffffffffffffffffffffffffffff1673ffffffffffffffffffffffffffffffffffffffff163373ffffffffffffffffffffffffffffffffffffffff1614151561119257600080fd5b600073ffffffffffffffffffffffffffffffffffffffff168173ffffffffffffffffffffffffffffffffffffffff16141515156111ce57600080fd5b8073ffffffffffffffffffffffffffffffffffffffff166000809054906101000a900473ffffffffffffffffffffffffffffffffffffffff1673ffffffffffffffffffffffffffffffffffffffff167f8be0079c531659141344cd1fd0a4f28419497f9722a3daafe3b4186f6b6457e060405160405180910390a3806000806101000a81548173ffffffffffffffffffffffffffffffffffffffff021916908373ffffffffffffffffffffffffffffffffffffffff16021790555050565b828054600181600116156101000203166002900490600052602060002090601f016020900481019282601f106112cd57805160ff19168380011785556112fb565b828001600101855582156112fb579182015b828111156112fa5782518255916020019190600101906112df565b5b509050611308919061130c565b5090565b61132e91905b8082111561132a576000816000905550600101611312565b5090565b905600a165627a7a72305820b8779113cf0a9e9162b64a2806538ed62d68107de2fc26c9e95a48c6138de8750029",
  "source": "pragma solidity ^0.4.24;\r\n\r\nimport 'installed_contracts/zeppelin/contracts/ownership/Ownable.sol';\r\nimport 'installed_contracts/zeppelin/contracts/lifecycle/Pausable.sol';\r\n\r\n/** \r\n* @title Ipfs File Storage \r\n* Contract that keeps ipfs hashes with timestamps\r\n* Goal: Proof of existence of files\r\n* @author Paula Mannes\r\n*/\r\ncontract IpfsStorage is Ownable, Pausable {\r\n\r\n\r\n\r\n  event LogNewFile(address indexed accountAddress, string fileName, string ipfsHash, string tags, uint timestamp);\r\n\r\n  struct FileStruct {\r\n    string fileName;\r\n    string ipfsHash;\r\n    string tags;\r\n    uint timestamp;\r\n  }\r\n\r\n  FileStruct[] public fileStructs;\r\n  \r\n  mapping (address => uint[]) private addressToFiles;\r\n  mapping (uint => address) public fileOwner;\r\n\r\n  bool private stopped; \r\n\r\n  /**\r\n   * @dev Modifier to check input size\r\n   */\r\n  modifier inputIsValid(string _fileName, string _ipfsHash, string _tags) {\r\n    require(bytes(_tags).length <= 50);    \r\n    require(bytes(_fileName).length <= 50);\r\n    require(bytes(_ipfsHash).length <= 46);\r\n    _;\r\n  }\r\n\r\n  /**\r\n  * @dev Set file info and associate it with the sender address\r\n  * @param _fileName Name of the file\r\n  * @param _ipfsHash Hash of file on IPFS\r\n  * @param _tags String with tags\r\n  */\r\n  function insertFile(string _fileName, string _ipfsHash, string _tags) \r\n    public \r\n    whenNotPaused\r\n    inputIsValid(_fileName,_ipfsHash,_tags)\r\n  { \r\n    uint id = fileStructs.push(FileStruct(_fileName, _ipfsHash, _tags, block.timestamp)) - 1;\r\n    addressToFiles[msg.sender].push(id);\r\n    fileOwner[id] = msg.sender;\r\n    emit LogNewFile(msg.sender, _fileName, _ipfsHash, _tags, block.timestamp);\r\n  }\r\n\r\n  /**\r\n  * @dev Get file indexes associated with the sender address\r\n  * @return Array uint indexes\r\n  */\r\n  function getFileIndexes() public view returns (uint[]) {\r\n    return addressToFiles[msg.sender];\r\n  }\r\n  \r\n  /**\r\n  * @dev Get file info associated with the index and the sender address\r\n  * @return fileName, ipfsHash, tags, timestamp\r\n  */\r\n  function getFile(uint _index) public view returns (string, string, string, uint) {\r\n    //security check: msg.sender has to be the file owner to access it\r\n    require(fileOwner[_index] == msg.sender);    \r\n\r\n    return (\r\n      fileStructs[_index].fileName, \r\n      fileStructs[_index].ipfsHash, \r\n      fileStructs[_index].tags,\r\n      fileStructs[_index].timestamp\r\n      );\r\n  }\r\n}",
  "sourcePath": "D:\\consensys-proofofexistence\\contracts\\IpfsStorage.sol",
  "compiler": {
    "name": "solc",
    "version": "0.4.24+commit.e67f0147.Emscripten.clang"
  },
  "schemaVersion": "2.0.1",
  "updatedAt": "2018-08-29T05:39:45.381Z"
}