{
  "contractName": "IpfsStorage",
  "abi": [
    {
      "constant": true,
      "inputs": [],
      "name": "owner",
      "outputs": [
        {
          "name": "",
          "type": "address"
        }
      ],
      "payable": false,
      "stateMutability": "view",
      "type": "function"
    },
    {
      "constant": true,
      "inputs": [
        {
          "name": "",
          "type": "uint256"
        }
      ],
      "name": "fileStructs",
      "outputs": [
        {
          "name": "fileName",
          "type": "string"
        },
        {
          "name": "ipfsHash",
          "type": "string"
        },
        {
          "name": "tags",
          "type": "string"
        },
        {
          "name": "timestamp",
          "type": "uint256"
        }
      ],
      "payable": false,
      "stateMutability": "view",
      "type": "function"
    },
    {
      "constant": false,
      "inputs": [
        {
          "name": "newOwner",
          "type": "address"
        }
      ],
      "name": "transferOwnership",
      "outputs": [],
      "payable": false,
      "stateMutability": "nonpayable",
      "type": "function"
    },
    {
      "inputs": [],
      "payable": false,
      "stateMutability": "nonpayable",
      "type": "constructor"
    },
    {
      "anonymous": false,
      "inputs": [
        {
          "indexed": true,
          "name": "accountAddress",
          "type": "address"
        },
        {
          "indexed": false,
          "name": "fileName",
          "type": "string"
        },
        {
          "indexed": false,
          "name": "ipfsHash",
          "type": "string"
        },
        {
          "indexed": false,
          "name": "tags",
          "type": "string"
        },
        {
          "indexed": false,
          "name": "timestamp",
          "type": "uint256"
        }
      ],
      "name": "LogNewFile",
      "type": "event"
    },
    {
      "anonymous": false,
      "inputs": [
        {
          "indexed": true,
          "name": "previousOwner",
          "type": "address"
        },
        {
          "indexed": true,
          "name": "newOwner",
          "type": "address"
        }
      ],
      "name": "OwnershipTransferred",
      "type": "event"
    },
    {
      "constant": false,
      "inputs": [
        {
          "name": "_fileName",
          "type": "string"
        },
        {
          "name": "_ipfsHash",
          "type": "string"
        },
        {
          "name": "_tags",
          "type": "string"
        }
      ],
      "name": "insertFile",
      "outputs": [],
      "payable": false,
      "stateMutability": "nonpayable",
      "type": "function"
    },
    {
      "constant": true,
      "inputs": [],
      "name": "getFileIndexes",
      "outputs": [
        {
          "name": "",
          "type": "uint256[]"
        }
      ],
      "payable": false,
      "stateMutability": "view",
      "type": "function"
    },
    {
      "constant": true,
      "inputs": [
        {
          "name": "_index",
          "type": "uint256"
        }
      ],
      "name": "getFile",
      "outputs": [
        {
          "name": "",
          "type": "string"
        },
        {
          "name": "",
          "type": "string"
        },
        {
          "name": "",
          "type": "string"
        },
        {
          "name": "",
          "type": "uint256"
        }
      ],
      "payable": false,
      "stateMutability": "view",
      "type": "function"
    },
    {
      "constant": false,
      "inputs": [],
      "name": "toggleActive",
      "outputs": [],
      "payable": false,
      "stateMutability": "nonpayable",
      "type": "function"
    }
  ],
  "bytecode": "0x608060405234801561001057600080fd5b5060008054600160a060020a031916331790556004805460ff19169055610ced8061003c6000396000f3006080604052600436106100825763ffffffff7c010000000000000000000000000000000000000000000000000000000060003504166318dded32811461008757806329c68dc1146100ec5780632bfda313146101035780637d1204ce146102665780638da5cb5b1461033b578063d5e143fb14610379578063f2fde38b14610391575b600080fd5b34801561009357600080fd5b5061009c6103bf565b60408051602080825283518183015283519192839290830191858101910280838360005b838110156100d85781810151838201526020016100c0565b505050509050019250505060405180910390f35b3480156100f857600080fd5b50610101610421565b005b34801561010f57600080fd5b5061011b600435610459565b60405180806020018060200180602001858152602001848103845288818151815260200191508051906020019080838360005b8381101561016657818101518382015260200161014e565b50505050905090810190601f1680156101935780820380516001836020036101000a031916815260200191505b50848103835287518152875160209182019189019080838360005b838110156101c65781810151838201526020016101ae565b50505050905090810190601f1680156101f35780820380516001836020036101000a031916815260200191505b50848103825286518152865160209182019188019080838360005b8381101561022657818101518382015260200161020e565b50505050905090810190601f1680156102535780820380516001836020036101000a031916815260200191505b5097505050505050505060405180910390f35b34801561027257600080fd5b506040805160206004803580820135601f810184900484028501840190955284845261010194369492936024939284019190819084018382808284375050604080516020601f89358b018035918201839004830284018301909452808352979a99988101979196509182019450925082915084018382808284375050604080516020601f89358b018035918201839004830284018301909452808352979a9998810197919650918201945092508291508401838280828437509497506106cc9650505050505050565b34801561034757600080fd5b5061035061095e565b6040805173ffffffffffffffffffffffffffffffffffffffff9092168252519081900360200190f35b34801561038557600080fd5b5061011b60043561097a565b34801561039d57600080fd5b5061010173ffffffffffffffffffffffffffffffffffffffff60043516610b61565b3360009081526002602090815260409182902080548351818402810184019094528084526060939283018282801561041657602002820191906000526020600020905b815481526020019060010190808311610402575b505050505090505b90565b60005473ffffffffffffffffffffffffffffffffffffffff16331461044557600080fd5b6004805460ff19811660ff90911615179055565b600081815260036020526040812054606091829182919073ffffffffffffffffffffffffffffffffffffffff16331461049157600080fd5b600180548690811061049f57fe5b90600052602060002090600402016000016001868154811015156104bf57fe5b90600052602060002090600402016001016001878154811015156104df57fe5b90600052602060002090600402016002016001888154811015156104ff57fe5b600091825260209182902060036004909202010154845460408051601f60026000196101006001871615020190941693909304928301859004850281018501909152818152919286919083018282801561059a5780601f1061056f5761010080835404028352916020019161059a565b820191906000526020600020905b81548152906001019060200180831161057d57829003601f168201915b5050865460408051602060026001851615610100026000190190941693909304601f8101849004840282018401909252818152959950889450925084019050828280156106285780601f106105fd57610100808354040283529160200191610628565b820191906000526020600020905b81548152906001019060200180831161060b57829003601f168201915b5050855460408051602060026001851615610100026000190190941693909304601f8101849004840282018401909252818152959850879450925084019050828280156106b65780601f1061068b576101008083540402835291602001916106b6565b820191906000526020600020905b81548152906001019060200180831161069957829003601f168201915b5050505050915093509350935093509193509193565b60045460009060ff16156106df57600080fd5b60408051608081018252858152602080820186905291810184905242606082015260018054808201808355600083905283518051939591949360049093027fb10e2d527612073b26eecdfd717e6a320cf44b4afac2b0732d9fcbe2b7fa0cf6019261074d9284920190610c29565b5060208281015180516107669260018501920190610c29565b5060408201518051610782916002840191602090910190610c29565b5060609182015160039182015533600081815260026020908152604080832080546001810182559084528284209890970397909601879055868252928352848120805473ffffffffffffffffffffffffffffffffffffffff19168317905584514294810185905260808082528b51908201528a5196975091957f203628b85349a7307961fcd46c3f262e33dcdf0be979bd3d1b6c22978408b1a9958b958b958b95919491938493848301939085019260a0860192908b01918190849084905b83811015610859578181015183820152602001610841565b50505050905090810190601f1680156108865780820380516001836020036101000a031916815260200191505b50848103835287518152875160209182019189019080838360005b838110156108b95781810151838201526020016108a1565b50505050905090810190601f1680156108e65780820380516001836020036101000a031916815260200191505b50848103825286518152865160209182019188019080838360005b83811015610919578181015183820152602001610901565b50505050905090810190601f1680156109465780820380516001836020036101000a031916815260200191505b5097505050505050505060405180910390a250505050565b60005473ffffffffffffffffffffffffffffffffffffffff1681565b600180548290811061098857fe5b60009182526020918290206004919091020180546040805160026001841615610100026000190190931692909204601f810185900485028301850190915280825291935091839190830182828015610a215780601f106109f657610100808354040283529160200191610a21565b820191906000526020600020905b815481529060010190602001808311610a0457829003601f168201915b505050505090806001018054600181600116156101000203166002900480601f016020809104026020016040519081016040528092919081815260200182805460018160011615610100020316600290048015610abf5780601f10610a9457610100808354040283529160200191610abf565b820191906000526020600020905b815481529060010190602001808311610aa257829003601f168201915b50505060028085018054604080516020601f6000196101006001871615020190941695909504928301859004850281018501909152818152959695945090925090830182828015610b515780601f10610b2657610100808354040283529160200191610b51565b820191906000526020600020905b815481529060010190602001808311610b3457829003601f168201915b5050505050908060030154905084565b60005473ffffffffffffffffffffffffffffffffffffffff163314610b8557600080fd5b73ffffffffffffffffffffffffffffffffffffffff81161515610ba757600080fd5b6000805460405173ffffffffffffffffffffffffffffffffffffffff808516939216917f8be0079c531659141344cd1fd0a4f28419497f9722a3daafe3b4186f6b6457e091a36000805473ffffffffffffffffffffffffffffffffffffffff191673ffffffffffffffffffffffffffffffffffffffff92909216919091179055565b828054600181600116156101000203166002900490600052602060002090601f016020900481019282601f10610c6a57805160ff1916838001178555610c97565b82800160010185558215610c97579182015b82811115610c97578251825591602001919060010190610c7c565b50610ca3929150610ca7565b5090565b61041e91905b80821115610ca35760008155600101610cad5600a165627a7a7230582016743ebdbaf9e5251b9fd18f5e096380088a2b2160ca0d60a5bd57ce1f52278c0029",
  "source": "pragma solidity ^0.4.24;\r\n\r\nimport 'installed_contracts/zeppelin/contracts/ownership/Ownable.sol';\r\n\r\n/** \r\n* @title Ipfs File Storage \r\n* Contract that keeps ipfs hashes with timestamps\r\n* Goal: Proof of existence of files\r\n* @author Paula Mannes\r\n*/\r\ncontract IpfsStorage is Ownable {\r\n\r\n\r\n  struct FileStruct {\r\n    string fileName;\r\n    string ipfsHash;\r\n    string tags;\r\n    uint timestamp;\r\n  }\r\n\r\n  FileStruct[] public fileStructs;\r\n  \r\n  mapping (address => uint[]) private addressToFiles;\r\n  mapping (uint => address) private fileOwner;\r\n\r\n  bool private stopped;\r\n \r\n  event LogNewFile(address indexed accountAddress, string fileName, string ipfsHash, string tags, uint timestamp);\r\n\r\n  /**\r\n  * @dev Constructor sets Circuit breaker flag\r\n  */\r\n  constructor() public {\r\n    stopped = false;\r\n  }\r\n\r\n  /**\r\n  * @dev Set file info and associate it with the sender address\r\n  * @param _fileName Name of the file\r\n  * @param _ipfsHash Hash of file on IPFS\r\n  * @param _tags String with tags\r\n  */\r\n  function insertFile(string _fileName, string _ipfsHash, string _tags) public stopOnEmergency {\r\n      uint id = fileStructs.push(FileStruct(_fileName, _ipfsHash, _tags, block.timestamp)) - 1;\r\n      addressToFiles[msg.sender].push(id);\r\n      fileOwner[id] = msg.sender;\r\n      emit LogNewFile(msg.sender, _fileName, _ipfsHash, _tags, block.timestamp);\r\n  }\r\n\r\n  /**\r\n  * @dev Get file indexes associated with the sender address\r\n  * @return Array uint indexes\r\n  */\r\n  function getFileIndexes() public view returns (uint[]) {\r\n    return addressToFiles[msg.sender];\r\n  }\r\n  \r\n  /**\r\n  * @dev Get file info associated with the index and the sender address\r\n  * @return fileName, ipfsHash, tags, timestamp\r\n  */\r\n  function getFile(uint _index) public view returns (string, string, string, uint) {\r\n    //security check: msg.sender has to be the file owner to access it\r\n    require(fileOwner[_index] == msg.sender);\r\n\r\n    return (\r\n        fileStructs[_index].fileName, \r\n        fileStructs[_index].ipfsHash, \r\n        fileStructs[_index].tags,\r\n        fileStructs[_index].timestamp\r\n        );\r\n  }\r\n\r\n\r\n  function toggleActive() onlyOwner public {\r\n      stopped = !stopped;\r\n  }\r\n\r\n  modifier stopOnEmergency() {\r\n    require(!stopped);\r\n    _;\r\n  }\r\n}",
  "sourcePath": "D:\\consensys-proofofexistence\\contracts\\IpfsStorage.sol",
  "compiler": {
    "name": "solc",
    "version": "0.4.24+commit.e67f0147.Emscripten.clang"
  },
  "schemaVersion": "2.0.1",
  "updatedAt": "2018-08-28T00:29:37.096Z"
}