{
  "contractName": "IpfsStorage",
  "abi": [
    {
      "constant": true,
      "inputs": [],
      "name": "ipfsHash",
      "outputs": [
        {
          "name": "",
          "type": "string"
        }
      ],
      "payable": false,
      "stateMutability": "view",
      "type": "function"
    },
    {
      "constant": true,
      "inputs": [
        {
          "name": "",
          "type": "uint256"
        }
      ],
      "name": "fileStructs",
      "outputs": [
        {
          "name": "fileName",
          "type": "string"
        },
        {
          "name": "ipfsHash",
          "type": "string"
        },
        {
          "name": "tags",
          "type": "string"
        },
        {
          "name": "timestamp",
          "type": "uint256"
        }
      ],
      "payable": false,
      "stateMutability": "view",
      "type": "function"
    },
    {
      "anonymous": false,
      "inputs": [
        {
          "indexed": true,
          "name": "accountAddress",
          "type": "address"
        },
        {
          "indexed": false,
          "name": "fileName",
          "type": "string"
        },
        {
          "indexed": false,
          "name": "ipfsHash",
          "type": "string"
        },
        {
          "indexed": false,
          "name": "tags",
          "type": "string"
        },
        {
          "indexed": false,
          "name": "timestamp",
          "type": "uint256"
        }
      ],
      "name": "LogNewFile",
      "type": "event"
    },
    {
      "constant": false,
      "inputs": [
        {
          "name": "x",
          "type": "string"
        }
      ],
      "name": "sendHash",
      "outputs": [],
      "payable": false,
      "stateMutability": "nonpayable",
      "type": "function"
    },
    {
      "constant": true,
      "inputs": [],
      "name": "getHash",
      "outputs": [
        {
          "name": "x",
          "type": "string"
        }
      ],
      "payable": false,
      "stateMutability": "view",
      "type": "function"
    },
    {
      "constant": false,
      "inputs": [
        {
          "name": "_fileName",
          "type": "string"
        },
        {
          "name": "_ipfsHash",
          "type": "string"
        },
        {
          "name": "_tags",
          "type": "string"
        }
      ],
      "name": "insertFile",
      "outputs": [],
      "payable": false,
      "stateMutability": "nonpayable",
      "type": "function"
    },
    {
      "constant": true,
      "inputs": [],
      "name": "getFileIndexes",
      "outputs": [
        {
          "name": "",
          "type": "uint256[]"
        }
      ],
      "payable": false,
      "stateMutability": "view",
      "type": "function"
    },
    {
      "constant": true,
      "inputs": [
        {
          "name": "_index",
          "type": "uint256"
        }
      ],
      "name": "getFile",
      "outputs": [
        {
          "name": "",
          "type": "string"
        },
        {
          "name": "",
          "type": "string"
        },
        {
          "name": "",
          "type": "string"
        },
        {
          "name": "",
          "type": "uint256"
        }
      ],
      "payable": false,
      "stateMutability": "view",
      "type": "function"
    }
  ],
  "bytecode": "0x608060405234801561001057600080fd5b50610d69806100206000396000f3006080604052600436106100825763ffffffff7c010000000000000000000000000000000000000000000000000000000060003504166318dded3281146100875780632bfda313146100ec5780637d1204ce1461024f578063c623674f14610326578063d13319c4146103b0578063d5e143fb146103c5578063dfb29935146103dd575b600080fd5b34801561009357600080fd5b5061009c610436565b60408051602080825283518183015283519192839290830191858101910280838360005b838110156100d85781810151838201526020016100c0565b505050509050019250505060405180910390f35b3480156100f857600080fd5b50610104600435610498565b60405180806020018060200180602001858152602001848103845288818151815260200191508051906020019080838360005b8381101561014f578181015183820152602001610137565b50505050905090810190601f16801561017c5780820380516001836020036101000a031916815260200191505b50848103835287518152875160209182019189019080838360005b838110156101af578181015183820152602001610197565b50505050905090810190601f1680156101dc5780820380516001836020036101000a031916815260200191505b50848103825286518152865160209182019188019080838360005b8381101561020f5781810151838201526020016101f7565b50505050905090810190601f16801561023c5780820380516001836020036101000a031916815260200191505b5097505050505050505060405180910390f35b34801561025b57600080fd5b506040805160206004803580820135601f810184900484028501840190955284845261032494369492936024939284019190819084018382808284375050604080516020601f89358b018035918201839004830284018301909452808352979a99988101979196509182019450925082915084018382808284375050604080516020601f89358b018035918201839004830284018301909452808352979a99988101979196509182019450925082915084018382808284375094975061070b9650505050505050565b005b34801561033257600080fd5b5061033b61098c565b6040805160208082528351818301528351919283929083019185019080838360005b8381101561037557818101518382015260200161035d565b50505050905090810190601f1680156103a25780820380516001836020036101000a031916815260200191505b509250505060405180910390f35b3480156103bc57600080fd5b5061033b610a1a565b3480156103d157600080fd5b50610104600435610aa7565b3480156103e957600080fd5b506040805160206004803580820135601f8101849004840285018401909552848452610324943694929360249392840191908190840183828082843750949750610c8e9650505050505050565b3360009081526001602090815260409182902080548351818402810184019094528084526060939283018282801561048d57602002820191906000526020600020905b815481526020019060010190808311610479575b505050505090505b90565b600081815260026020526040812054606091829182919073ffffffffffffffffffffffffffffffffffffffff1633146104d057600080fd5b60008054869081106104de57fe5b90600052602060002090600402016000016000868154811015156104fe57fe5b906000526020600020906004020160010160008781548110151561051e57fe5b906000526020600020906004020160020160008881548110151561053e57fe5b600091825260209182902060036004909202010154845460408051601f6002600019610100600187161502019094169390930492830185900485028101850190915281815291928691908301828280156105d95780601f106105ae576101008083540402835291602001916105d9565b820191906000526020600020905b8154815290600101906020018083116105bc57829003601f168201915b5050865460408051602060026001851615610100026000190190941693909304601f8101849004840282018401909252818152959950889450925084019050828280156106675780601f1061063c57610100808354040283529160200191610667565b820191906000526020600020905b81548152906001019060200180831161064a57829003601f168201915b5050855460408051602060026001851615610100026000190190941693909304601f8101849004840282018401909252818152959850879450925084019050828280156106f55780601f106106ca576101008083540402835291602001916106f5565b820191906000526020600020905b8154815290600101906020018083116106d857829003601f168201915b5050505050915093509350935093509193509193565b6040805160808101825284815260208082018590529181018390524260608201526000805460018181018084558380528451805194969295919491936004027f290decd9548b62a8d60345a988386fc84ba6bc95484008f6362f93160ef3e563019261077c92849290910190610ca5565b5060208281015180516107959260018501920190610ca5565b50604082015180516107b1916002840191602090910190610ca5565b50606091820151600390910155336000818152600160208181526040808420805493840181558452818420979096039690910186905585825260028152848220805473ffffffffffffffffffffffffffffffffffffffff19168417905584514294810185905260808082528b51908201528a5196975092957f203628b85349a7307961fcd46c3f262e33dcdf0be979bd3d1b6c22978408b1a9958b958b958b95919490938493848301939085019260a0860192908b01918190849084905b8381101561088757818101518382015260200161086f565b50505050905090810190601f1680156108b45780820380516001836020036101000a031916815260200191505b50848103835287518152875160209182019189019080838360005b838110156108e75781810151838201526020016108cf565b50505050905090810190601f1680156109145780820380516001836020036101000a031916815260200191505b50848103825286518152865160209182019188019080838360005b8381101561094757818101518382015260200161092f565b50505050905090810190601f1680156109745780820380516001836020036101000a031916815260200191505b5097505050505050505060405180910390a250505050565b6003805460408051602060026001851615610100026000190190941693909304601f81018490048402820184019092528181529291830182828015610a125780601f106109e757610100808354040283529160200191610a12565b820191906000526020600020905b8154815290600101906020018083116109f557829003601f168201915b505050505081565b60038054604080516020601f600260001961010060018816150201909516949094049384018190048102820181019092528281526060939092909183018282801561048d5780601f10610a7b5761010080835404028352916020019161048d565b820191906000526020600020905b815481529060010190602001808311610a8957509395945050505050565b6000805482908110610ab557fe5b60009182526020918290206004919091020180546040805160026001841615610100026000190190931692909204601f810185900485028301850190915280825291935091839190830182828015610b4e5780601f10610b2357610100808354040283529160200191610b4e565b820191906000526020600020905b815481529060010190602001808311610b3157829003601f168201915b505050505090806001018054600181600116156101000203166002900480601f016020809104026020016040519081016040528092919081815260200182805460018160011615610100020316600290048015610bec5780601f10610bc157610100808354040283529160200191610bec565b820191906000526020600020905b815481529060010190602001808311610bcf57829003601f168201915b50505060028085018054604080516020601f6000196101006001871615020190941695909504928301859004850281018501909152818152959695945090925090830182828015610c7e5780601f10610c5357610100808354040283529160200191610c7e565b820191906000526020600020905b815481529060010190602001808311610c6157829003601f168201915b5050505050908060030154905084565b8051610ca1906003906020840190610ca5565b5050565b828054600181600116156101000203166002900490600052602060002090601f016020900481019282601f10610ce657805160ff1916838001178555610d13565b82800160010185558215610d13579182015b82811115610d13578251825591602001919060010190610cf8565b50610d1f929150610d23565b5090565b61049591905b80821115610d1f5760008155600101610d295600a165627a7a72305820acaef0ae80b3320f0da41219d7b68da053107487dbdc35224bc92683c05e94ed0029",
  "source": "pragma solidity ^0.4.24;\r\ncontract IpfsStorage {\r\n\r\n\r\n  struct FileStruct {\r\n    string fileName;\r\n    string ipfsHash;\r\n    string tags;\r\n    uint timestamp;\r\n  }\r\n\r\n  FileStruct[] public fileStructs;\r\n  \r\n  mapping (address => uint[]) private addressToFiles;\r\n  mapping (uint => address) private fileOwner;\r\n\r\n  string public ipfsHash;\r\n \r\n  event LogNewFile(address indexed accountAddress, string fileName, string ipfsHash, string tags, uint timestamp);\r\n\r\n  function sendHash(string x) public {\r\n    ipfsHash = x;\r\n  }\r\n\r\n  function getHash() public view returns (string x) {\r\n    return ipfsHash;\r\n  }\r\n\r\n  /**\r\n  * @dev Set file info and associated it with the sender address\r\n  */\r\n  function insertFile(string _fileName, string _ipfsHash, string _tags) public {\r\n      uint id = fileStructs.push(FileStruct(_fileName, _ipfsHash, _tags, block.timestamp)) - 1;\r\n      addressToFiles[msg.sender].push(id);\r\n      fileOwner[id] = msg.sender;\r\n      emit LogNewFile(msg.sender, _fileName, _ipfsHash, _tags, block.timestamp);\r\n  }\r\n\r\n  /**\r\n  * @dev Get file indexes associated with the sender address\r\n  * @return Array uint indexes\r\n  */\r\n  function getFileIndexes() public view returns (uint[]) {\r\n    return addressToFiles[msg.sender];\r\n  }\r\n  \r\n  /**\r\n  * @dev Get file info associated with the index and the sender address\r\n  * @return fileName, ipfsHash, tags, timestamp\r\n  */\r\n  function getFile(uint _index) public view returns (string, string, string, uint) {\r\n    //security check: msg.sender has to be the file owner to access it\r\n    require(fileOwner[_index] == msg.sender);\r\n\r\n    return (\r\n        fileStructs[_index].fileName, \r\n        fileStructs[_index].ipfsHash, \r\n        fileStructs[_index].tags,\r\n        fileStructs[_index].timestamp\r\n        );\r\n  }\r\n}",
  "sourcePath": "D:\\consensys-proofofexistence\\contracts\\IpfsStorage.sol",
  "compiler": {
    "name": "solc",
    "version": "0.4.24+commit.e67f0147.Emscripten.clang"
  },
  "schemaVersion": "2.0.1",
  "updatedAt": "2018-08-27T06:31:00.021Z"
}