{
  "contractName": "IpfsStorage",
  "abi": [
    {
      "constant": false,
      "inputs": [],
      "name": "unpause",
      "outputs": [],
      "payable": false,
      "stateMutability": "nonpayable",
      "type": "function"
    },
    {
      "constant": true,
      "inputs": [],
      "name": "paused",
      "outputs": [
        {
          "name": "",
          "type": "bool"
        }
      ],
      "payable": false,
      "stateMutability": "view",
      "type": "function"
    },
    {
      "constant": false,
      "inputs": [],
      "name": "pause",
      "outputs": [],
      "payable": false,
      "stateMutability": "nonpayable",
      "type": "function"
    },
    {
      "constant": true,
      "inputs": [],
      "name": "owner",
      "outputs": [
        {
          "name": "",
          "type": "address"
        }
      ],
      "payable": false,
      "stateMutability": "view",
      "type": "function"
    },
    {
      "constant": true,
      "inputs": [
        {
          "name": "",
          "type": "uint256"
        }
      ],
      "name": "fileStructs",
      "outputs": [
        {
          "name": "fileName",
          "type": "string"
        },
        {
          "name": "ipfsHash",
          "type": "string"
        },
        {
          "name": "tags",
          "type": "string"
        },
        {
          "name": "timestamp",
          "type": "uint256"
        }
      ],
      "payable": false,
      "stateMutability": "view",
      "type": "function"
    },
    {
      "constant": true,
      "inputs": [
        {
          "name": "",
          "type": "uint256"
        }
      ],
      "name": "fileOwner",
      "outputs": [
        {
          "name": "",
          "type": "address"
        }
      ],
      "payable": false,
      "stateMutability": "view",
      "type": "function"
    },
    {
      "constant": false,
      "inputs": [
        {
          "name": "newOwner",
          "type": "address"
        }
      ],
      "name": "transferOwnership",
      "outputs": [],
      "payable": false,
      "stateMutability": "nonpayable",
      "type": "function"
    },
    {
      "anonymous": false,
      "inputs": [
        {
          "indexed": true,
          "name": "accountAddress",
          "type": "address"
        },
        {
          "indexed": false,
          "name": "fileName",
          "type": "string"
        },
        {
          "indexed": false,
          "name": "ipfsHash",
          "type": "string"
        },
        {
          "indexed": false,
          "name": "tags",
          "type": "string"
        },
        {
          "indexed": false,
          "name": "timestamp",
          "type": "uint256"
        }
      ],
      "name": "LogNewFile",
      "type": "event"
    },
    {
      "anonymous": false,
      "inputs": [],
      "name": "Pause",
      "type": "event"
    },
    {
      "anonymous": false,
      "inputs": [],
      "name": "Unpause",
      "type": "event"
    },
    {
      "anonymous": false,
      "inputs": [
        {
          "indexed": true,
          "name": "previousOwner",
          "type": "address"
        },
        {
          "indexed": true,
          "name": "newOwner",
          "type": "address"
        }
      ],
      "name": "OwnershipTransferred",
      "type": "event"
    },
    {
      "constant": false,
      "inputs": [
        {
          "name": "_fileName",
          "type": "string"
        },
        {
          "name": "_ipfsHash",
          "type": "string"
        },
        {
          "name": "_tags",
          "type": "string"
        }
      ],
      "name": "insertFile",
      "outputs": [],
      "payable": false,
      "stateMutability": "nonpayable",
      "type": "function"
    },
    {
      "constant": true,
      "inputs": [],
      "name": "getFileIndexes",
      "outputs": [
        {
          "name": "",
          "type": "uint256[]"
        }
      ],
      "payable": false,
      "stateMutability": "view",
      "type": "function"
    },
    {
      "constant": true,
      "inputs": [
        {
          "name": "_index",
          "type": "uint256"
        }
      ],
      "name": "getFile",
      "outputs": [
        {
          "name": "",
          "type": "string"
        },
        {
          "name": "",
          "type": "string"
        },
        {
          "name": "",
          "type": "string"
        },
        {
          "name": "",
          "type": "uint256"
        }
      ],
      "payable": false,
      "stateMutability": "view",
      "type": "function"
    }
  ],
  "bytecode": "0x608060405260008054600160a860020a03191633179055610efe806100256000396000f3006080604052600436106100a35763ffffffff7c010000000000000000000000000000000000000000000000000000000060003504166318dded3281146100a85780632bfda3131461010d5780633f4ba83a146102705780635c975abb146102875780637d1204ce146102b05780638456cb59146103855780638da5cb5b1461039a578063d5e143fb146103d8578063edb02e92146103f0578063f2fde38b14610408575b600080fd5b3480156100b457600080fd5b506100bd610436565b60408051602080825283518183015283519192839290830191858101910280838360005b838110156100f95781810151838201526020016100e1565b505050509050019250505060405180910390f35b34801561011957600080fd5b50610125600435610498565b60405180806020018060200180602001858152602001848103845288818151815260200191508051906020019080838360005b83811015610170578181015183820152602001610158565b50505050905090810190601f16801561019d5780820380516001836020036101000a031916815260200191505b50848103835287518152875160209182019189019080838360005b838110156101d05781810151838201526020016101b8565b50505050905090810190601f1680156101fd5780820380516001836020036101000a031916815260200191505b50848103825286518152865160209182019188019080838360005b83811015610230578181015183820152602001610218565b50505050905090810190601f16801561025d5780820380516001836020036101000a031916815260200191505b5097505050505050505060405180910390f35b34801561027c57600080fd5b5061028561070b565b005b34801561029357600080fd5b5061029c61079f565b604080519115158252519081900360200190f35b3480156102bc57600080fd5b506040805160206004803580820135601f810184900484028501840190955284845261028594369492936024939284019190819084018382808284375050604080516020601f89358b018035918201839004830284018301909452808352979a99988101979196509182019450925082915084018382808284375050604080516020601f89358b018035918201839004830284018301909452808352979a9998810197919650918201945092508291508401838280828437509497506107c09650505050505050565b34801561039157600080fd5b50610285610a9d565b3480156103a657600080fd5b506103af610b47565b6040805173ffffffffffffffffffffffffffffffffffffffff9092168252519081900360200190f35b3480156103e457600080fd5b50610125600435610b63565b3480156103fc57600080fd5b506103af600435610d4a565b34801561041457600080fd5b5061028573ffffffffffffffffffffffffffffffffffffffff60043516610d72565b3360009081526002602090815260409182902080548351818402810184019094528084526060939283018282801561048d57602002820191906000526020600020905b815481526020019060010190808311610479575b505050505090505b90565b600081815260036020526040812054606091829182919073ffffffffffffffffffffffffffffffffffffffff1633146104d057600080fd5b60018054869081106104de57fe5b90600052602060002090600402016000016001868154811015156104fe57fe5b906000526020600020906004020160010160018781548110151561051e57fe5b906000526020600020906004020160020160018881548110151561053e57fe5b600091825260209182902060036004909202010154845460408051601f6002600019610100600187161502019094169390930492830185900485028101850190915281815291928691908301828280156105d95780601f106105ae576101008083540402835291602001916105d9565b820191906000526020600020905b8154815290600101906020018083116105bc57829003601f168201915b5050865460408051602060026001851615610100026000190190941693909304601f8101849004840282018401909252818152959950889450925084019050828280156106675780601f1061063c57610100808354040283529160200191610667565b820191906000526020600020905b81548152906001019060200180831161064a57829003601f168201915b5050855460408051602060026001851615610100026000190190941693909304601f8101849004840282018401909252818152959850879450925084019050828280156106f55780601f106106ca576101008083540402835291602001916106f5565b820191906000526020600020905b8154815290600101906020018083116106d857829003601f168201915b5050505050915093509350935093509193509193565b60005473ffffffffffffffffffffffffffffffffffffffff16331461072f57600080fd5b60005474010000000000000000000000000000000000000000900460ff16151561075857600080fd5b6000805474ff0000000000000000000000000000000000000000191681556040517f7805862f689e2f13df9f062ff482ad3ad112aca9e0847911ed832e158c525b339190a1565b60005474010000000000000000000000000000000000000000900460ff1681565b6000805474010000000000000000000000000000000000000000900460ff16156107e957600080fd5b83838360328151111515156107fd57600080fd5b82516032101561080c57600080fd5b8151602e101561081b57600080fd5b60408051608081018252888152602080820189905291810187905242606082015260018054808201808355600083905283518051939591949360049093027fb10e2d527612073b26eecdfd717e6a320cf44b4afac2b0732d9fcbe2b7fa0cf601926108899284920190610e3a565b5060208281015180516108a29260018501920190610e3a565b50604082015180516108be916002840191602090910190610e3a565b5060609182015160039182015533600081815260026020908152604080832080546001810182559084528284209890970397909601879055868252928352848120805473ffffffffffffffffffffffffffffffffffffffff19168317905584514294810185905260808082528e51908201528d51969a5091957f203628b85349a7307961fcd46c3f262e33dcdf0be979bd3d1b6c22978408b1a9958e958e958e95919491938493848301939085019260a0860192908b01918190849084905b8381101561099557818101518382015260200161097d565b50505050905090810190601f1680156109c25780820380516001836020036101000a031916815260200191505b50848103835287518152875160209182019189019080838360005b838110156109f55781810151838201526020016109dd565b50505050905090810190601f168015610a225780820380516001836020036101000a031916815260200191505b50848103825286518152865160209182019188019080838360005b83811015610a55578181015183820152602001610a3d565b50505050905090810190601f168015610a825780820380516001836020036101000a031916815260200191505b5097505050505050505060405180910390a250505050505050565b60005473ffffffffffffffffffffffffffffffffffffffff163314610ac157600080fd5b60005474010000000000000000000000000000000000000000900460ff1615610ae957600080fd5b6000805474ff00000000000000000000000000000000000000001916740100000000000000000000000000000000000000001781556040517f6985a02210a168e66602d3235cb6db0e70f92b3ba4d376a33c0f3d9434bff6259190a1565b60005473ffffffffffffffffffffffffffffffffffffffff1681565b6001805482908110610b7157fe5b60009182526020918290206004919091020180546040805160026001841615610100026000190190931692909204601f810185900485028301850190915280825291935091839190830182828015610c0a5780601f10610bdf57610100808354040283529160200191610c0a565b820191906000526020600020905b815481529060010190602001808311610bed57829003601f168201915b505050505090806001018054600181600116156101000203166002900480601f016020809104026020016040519081016040528092919081815260200182805460018160011615610100020316600290048015610ca85780601f10610c7d57610100808354040283529160200191610ca8565b820191906000526020600020905b815481529060010190602001808311610c8b57829003601f168201915b50505060028085018054604080516020601f6000196101006001871615020190941695909504928301859004850281018501909152818152959695945090925090830182828015610d3a5780601f10610d0f57610100808354040283529160200191610d3a565b820191906000526020600020905b815481529060010190602001808311610d1d57829003601f168201915b5050505050908060030154905084565b60036020526000908152604090205473ffffffffffffffffffffffffffffffffffffffff1681565b60005473ffffffffffffffffffffffffffffffffffffffff163314610d9657600080fd5b73ffffffffffffffffffffffffffffffffffffffff81161515610db857600080fd5b6000805460405173ffffffffffffffffffffffffffffffffffffffff808516939216917f8be0079c531659141344cd1fd0a4f28419497f9722a3daafe3b4186f6b6457e091a36000805473ffffffffffffffffffffffffffffffffffffffff191673ffffffffffffffffffffffffffffffffffffffff92909216919091179055565b828054600181600116156101000203166002900490600052602060002090601f016020900481019282601f10610e7b57805160ff1916838001178555610ea8565b82800160010185558215610ea8579182015b82811115610ea8578251825591602001919060010190610e8d565b50610eb4929150610eb8565b5090565b61049591905b80821115610eb45760008155600101610ebe5600a165627a7a723058203ade09c3558ccdfc3155ab13cd9f659e5b7ea79d03290679bd372f53dc7747660029",
  "source": "pragma solidity ^0.4.24;\r\n\r\nimport 'installed_contracts/zeppelin/contracts/ownership/Ownable.sol';\r\nimport 'installed_contracts/zeppelin/contracts/lifecycle/Pausable.sol';\r\n\r\n/** \r\n* @title Ipfs File Storage \r\n* Contract that keeps ipfs hashes with timestamps\r\n* Goal: Proof of existence of files\r\n* @author Paula Mannes\r\n*/\r\ncontract IpfsStorage is Ownable, Pausable {\r\n\r\n\r\n\r\n  event LogNewFile(address indexed accountAddress, string fileName, string ipfsHash, string tags, uint timestamp);\r\n\r\n  struct FileStruct {\r\n    string fileName;\r\n    string ipfsHash;\r\n    string tags;\r\n    uint timestamp;\r\n  }\r\n\r\n  FileStruct[] public fileStructs;\r\n  \r\n  mapping (address => uint[]) private addressToFiles;\r\n  mapping (uint => address) public fileOwner;\r\n\r\n  bool private stopped; \r\n\r\n  /**\r\n   * @dev Modifier to check input size\r\n   */\r\n  modifier inputIsValid(string _fileName, string _ipfsHash, string _tags) {\r\n    require(bytes(_tags).length <= 50);    \r\n    require(bytes(_fileName).length <= 50);\r\n    require(bytes(_ipfsHash).length <= 46);\r\n    _;\r\n  }\r\n\r\n  /**\r\n  * @dev Set file info and associate it with the sender address\r\n  * @param _fileName Name of the file\r\n  * @param _ipfsHash Hash of file on IPFS\r\n  * @param _tags String with tags\r\n  */\r\n  function insertFile(string _fileName, string _ipfsHash, string _tags) \r\n    public \r\n    whenNotPaused\r\n    inputIsValid(_fileName,_ipfsHash,_tags)\r\n  { \r\n    uint id = fileStructs.push(FileStruct(_fileName, _ipfsHash, _tags, block.timestamp)) - 1;\r\n    addressToFiles[msg.sender].push(id);\r\n    fileOwner[id] = msg.sender;\r\n    emit LogNewFile(msg.sender, _fileName, _ipfsHash, _tags, block.timestamp);\r\n  }\r\n\r\n  /**\r\n  * @dev Get file indexes associated with the sender address\r\n  * @return Array uint indexes\r\n  */\r\n  function getFileIndexes() public view returns (uint[]) {\r\n    return addressToFiles[msg.sender];\r\n  }\r\n  \r\n  /**\r\n  * @dev Get file info associated with the index and the sender address\r\n  * @return fileName, ipfsHash, tags, timestamp\r\n  */\r\n  function getFile(uint _index) public view returns (string, string, string, uint) {\r\n    //security check: msg.sender has to be the file owner to access it\r\n    require(fileOwner[_index] == msg.sender);    \r\n\r\n    return (\r\n      fileStructs[_index].fileName, \r\n      fileStructs[_index].ipfsHash, \r\n      fileStructs[_index].tags,\r\n      fileStructs[_index].timestamp\r\n      );\r\n  }\r\n}",
  "sourcePath": "D:\\consensys-proofofexistence\\contracts\\IpfsStorage.sol",
  "compiler": {
    "name": "solc",
    "version": "0.4.24+commit.e67f0147.Emscripten.clang"
  },
  "schemaVersion": "2.0.1",
  "updatedAt": "2018-08-28T06:03:04.148Z"
}